:100000000C945F000C9487000C9487000C9487007C
:100010000C9487000C9487000C9487000C94620366
:100020000C9487000C9487000C9487000C94870034
:100030000C9487000C9487000C9487000C94870024
:100040000C9418030C9487000C940A040C94E40399
:100050000C9487000C9487000C9487000C94870004
:100060000C9487000C948700020000000800020135
:100070000000030407000000000000000000000072
:1000800000250028002B0000000000240027002A83
:100090000004040404040404040202020202020331
:1000A000030303030301020408102040800102043B
:1000B000081020010204081020003C04E30711246A
:1000C0001FBECFEFD8E0DEBFCDBF22E0A4E4B1E099
:1000D00001C01D92A530B207E1F711E0A0E0B1E048
:1000E000E6E8F4E102C005900D92A434B107D9F717
:1000F00010E0CEE5D0E004C02197FE010E942A085E
:10010000CD35D107C9F70E9477040C94360A0C94B8
:10011000000090E0FC01EB55FF4F24918F569F4F5C
:10012000FC018491882399F090E0880F991FFC01CD
:10013000E957FF4FA591B491FC01E358FF4F85911A
:1001400094918FB7F894EC91E22BEC938FBF0895C4
:1001500090E0FC01E759FF4F2491FC01EB55FF4F64
:100160003491FC01EF56FF4FE491EE23C9F02223B6
:1001700039F0233001F1A8F4213019F1223029F1AE
:10018000F0E0EE0FFF1FE358FF4FA591B4918FB73A
:10019000F894EC91611126C030953E233C938FBFBB
:1001A00008952730A9F02830C9F0243049F780910C
:1001B00080008F7D03C0809180008F7780938000C6
:1001C000DFCF84B58F7784BDDBCF84B58F7DFBCF48
:1001D0008091B0008F778093B000D2CF8091B00033
:1001E0008F7DF9CF3E2BDACF0895AF92BF92CF9299
:1001F000DF92EF92FF920F931F93CF93DF936C01E7
:100200007B018B01040F151FEB015E01AE18BF08C7
:10021000C017D10759F06991D601ED91FC91019079
:10022000F081E02DC6010995892B79F7C501DF9191
:10023000CF911F910F91FF90EF90DF90CF90BF90E3
:10024000AF900895FC01538D448D252F30E0842F0D
:1002500090E0821B930B541710F0CF9608950197EE
:100260000895FC01918D828D981761F0A28DAE0FDB
:10027000BF2FB11D5D968C91928D9F5F9F73928F62
:1002800090E008958FEF9FEF0895FC01918D828D8E
:10029000981731F0828DE80FF11D858D90E008955B
:1002A0008FEF9FEF0895FC01918D228D892F90E0B3
:1002B000805C9F4F821B91098F73992708958EE56B
:1002C00091E00E94530121E0892B09F420E0822F64
:1002D000089580E090E0892B29F00E945F01811150
:1002E0000C9400000895FC01A48DA80FB92FB11D36
:1002F000A35ABF4F2C91848D90E001968F7399275C
:10030000848FA689B7892C93A089B1898C91837039
:1003100080648C93938D848D981306C00288F38932
:10032000E02D80818F7D80830895EF92FF920F935F
:100330001F93CF93DF93EC0181E0888F9B8D8C8D91
:1003400098131AC0E889F989808185FF15C09FB785
:10035000F894EE89FF896083E889F9898081837048
:10036000806480839FBF81E090E0DF91CF911F91F7
:100370000F91FF90EF900895F62E0B8D10E00F5F18
:100380001F4F0F731127E02E8C8D8E110CC00FB6EE
:1003900007FCFACFE889F989808185FFF5CFCE0186
:1003A0000E947301F1CFEB8DEC0FFD2FF11DE35A8D
:1003B000FF4FF0829FB7F8940B8FEA89FB89808109
:1003C0008062CFCFCF93DF93EC01888D8823B9F083
:1003D000AA89BB89E889F9898C9185FD03C0808150
:1003E00086FD0DC00FB607FCF7CF8C9185FFF2CFCD
:1003F000808185FFEDCFCE010E947301E9CFDF91AF
:10040000CF910895CF93DF93FC0101900020E9F78D
:100410003197AF01481B590BBC018EE591E00E945A
:10042000F500EC0142E050E069E171E08EE591E019
:100430000E94F5008C0F9D1FDF91CF910895CF93FF
:10044000DF93EC0188819981009711F00E94CC081C
:10045000198218821D821C821B821A82DF91CF9121
:1004600008950F931F93CF93DF938C01EB01FC0151
:10047000808191810097E1F0688179816115710532
:10048000A9F0428153812C813D814217530770F0BE
:100490000E942F0A8C819D81F801958384831D829F
:1004A0001C82DF91CF911F910F9108950E94CC087B
:1004B00088819981F801918380838A819B819383CC
:1004C00082838C819D8195838483198218821B820B
:1004D0001A82E5CFFC0180819181009711F00C9484
:1004E000CC080895AF92BF92CF92DF92EF92FF9225
:1004F0000F931F93CF93DF93DC01CD90DC90119786
:10050000C114D10439F01496CD91DC918C0176019F
:10051000209761F4DF91CF911F910F91FF90EF90A1
:10052000DF90CF90BF90AF90089575015701BFEF56
:10053000AB1ABB0AF7018081082E000C990B0E94B0
:10054000E707892B91F72197CC0DDD1D8881082EB7
:10055000000C990B0E94E707892B29F0CE15DF05C7
:1005600010F02197F3CFAE014F5F5F4F4E195F0937
:10057000D80115965C934E931497CE14DF0420F4A3
:10058000B701C6010E94120AD801ED91FC911197A2
:1005900014968D919C91E80FF91F1082BBCF0F9399
:1005A0001F93CF93DF93EC0188819981009759F0D5
:1005B0002A813B812617370730F081E0DF91CF9108
:1005C0001F910F9108958B016F5F7F4F0E94550916
:1005D000009759F0998388831B830A832C813D817E
:1005E000232B59F7FC011082E8CF80E0E7CFEF9290
:1005F000FF920F931F93CF93DF93EC017B018A014E
:10060000BA010E94CF0281110BC0CE010E941F02CD
:10061000CE01DF91CF911F910F91FF90EF90089540
:100620001D830C83B701888199810E942F0AF0CF26
:100630001F920F920FB60F9211242F933F938F9317
:100640009F93AF93BF9380915A0190915B01A091CA
:100650005C01B0915D013091590123E0230F2D37EA
:1006600058F50196A11DB11D2093590180935A019F
:1006700090935B01A0935C01B0935D018091550163
:1006800090915601A0915701B09158010196A11D7A
:10069000B11D8093550190935601A0935701B093DB
:1006A0005801BF91AF919F918F913F912F910F90E2
:1006B0000FBE0F901F90189526E8230F0296A11DDC
:1006C000B11DD2CF1F920F920FB60F9211242F930C
:1006D0003F934F935F936F937F938F939F93AF93CA
:1006E000BF93EF93FF938091490190914A01A091AC
:1006F0004B01B0914C01892B8A2B8B2BD1F190911E
:100700004401E0914501F091460180818927808371
:100710008091490190914A01A0914B01B0914C0107
:10072000181619061A061B069CF48091490190912F
:100730004A01A0914B01B0914C010197A109B10967
:100740008093490190934A01A0934B01B0934C01CF
:10075000FF91EF91BF91AF919F918F917F916F9199
:100760005F914F913F912F910F900FBE0F901F906F
:10077000189580910001E8E6F0E0E4919FEF9093F6
:100780000001E13051F030F0E23069F060E00E94A9
:10079000A800DECF10926E00F9CF90916F009D7F80
:1007A00090936F00F3CF909170009D7F90937000B5
:1007B00091E09093B0009091B100987F94609093F5
:1007C000B1001092B300E2CF1F920F920FB60F92BA
:1007D00011242F933F934F935F936F937F938F9346
:1007E0009F93AF93BF93EF93FF938EE591E00E94A9
:1007F0007301FF91EF91BF91AF919F918F917F9185
:100800006F915F914F913F912F910F900FBE0F907D
:100810001F9018951F920F920FB60F9211242F93CD
:100820008F939F93EF93FF93E0916E01F0916F018F
:100830008081E0917401F091750182FD1BC090816F
:10084000809177018F5F8F7320917801821741F03B
:10085000E0917701F0E0E25AFE4F958F80937701A7
:10086000FF91EF919F918F912F910F900FBE0F905D
:100870001F9018958081F4CFEEE5F1E0138212828B
:1008800088EE93E0A0E0B0E084839583A683B783ED
:100890008BE091E09183808385EC90E0958784875D
:1008A00084EC90E09787868780EC90E0918B808B3A
:1008B00081EC90E0938B828B82EC90E0958B848B23
:1008C00086EC90E0978B868B118E128E138E148E91
:1008D000EBEFF1E0118210821382128215821482F2
:1008E00050E040E06BE171E0CF010C94F702CF9350
:1008F000DF93CDB7DEB7CE54D1090FB6F894DEBF83
:100900000FBECDBF789484B5826084BD84B581600C
:1009100084BD85B5826085BD85B5816085BD8091CA
:100920006E00816080936E00109281008091810042
:10093000826080938100809181008160809381003A
:10094000809180008160809380008091B1008460FC
:100950008093B1008091B00081608093B00080915D
:100960007A00846080937A0080917A00826080931C
:100970007A0080917A00816080937A0080917A0079
:10098000806880937A001092C100E0916E01F0912E
:100990006F0182E08083E0916A01F0916B01108227
:1009A000E0916C01F0916D018FEC808310927601E3
:1009B000E0917201F091730186E08083E091700113
:1009C000F0917101808180618083E0917001F091EC
:1009D0007101808188608083E0917001F0917101E4
:1009E000808180688083E0917001F0917101808145
:1009F0008F7D80838DE00E94890080910001883086
:100A000009F400C18F3F09F426C17E018DE3E80E91
:100A1000F11C8EE591E00E945301892B09F4C6C2B6
:100A20008EE591E00E9431018A3009F09BC22B963D
:100A30001FAE1EAE2B972D961FAE1EAE2D972F9676
:100A40001FAE1EAE2F976091FB017091FC016115E6
:100A5000710549F04091FF0150910002CE01875B82
:100A60009F4F0E94F702CE01875B9F4F0E94720248
:100A7000FE0131964F018F011F01F8011182108292
:100A8000138212821582148250E040E06BE171E023
:100A9000C8010E94F7020A5F1F4FE016F10669F7CE
:100AA00025961FAE1EAE259727961FAE1EAE279722
:100AB00029961FAE1EAE29972B966EAD7FAD2B9754
:100AC0006115710549F02F964EAD5FAD2F97CE01A0
:100AD0008D5B9F4F0E94F70229968EAD9FAD29979F
:100AE000892B71F02596CEACDFAC259760E270E0E3
:100AF000C6010E941B0A8C010C191D09892B11F4D7
:100B00000FEF1FEFB12CA12CD12CC12C0F3F1007E0
:100B100009F453C19AE0C916D10409F4B0C12801FF
:100B200035010A151B0510F4380125011EAE1DAE56
:100B300021961FAE1EAE219723961FAE1EAE2397A1
:100B400050E040E06BE171E0C7010E94F702299696
:100B5000AEACBFAC29976A147B0448F54A145B0419
:100B600008F452012596EEADFFAD2597EA0DFB1D69
:100B70005080108225966EAD7FAD2597660D771D4E
:100B80006115710509F415C1FB0101900020E9F719
:100B90003197AF01461B570BC7010E94F7022596FC
:100BA0008EAD9FAD2597A80EB91EF5015082FFEFBF
:100BB000CF1ADF0AB701C4010E943102C7010E94A7
:100BC0006A0258018FEFA81AB80A29968EAD9FAD18
:100BD0002997A816B90680F425966EAC7FAC2597A8
:100BE00060E270E0C3018A0D9B1D0E941B0A8C010C
:100BF00006191709892B11F40FEF1FEFF6E08F0E7E
:100C0000911C84CFE8E6F0E0149117FDFECE88E059
:100C10000E948900112309F48CC0123009F0A1C090
:100C20008091B100887F85608093B1008DE88093CA
:100C3000B30080E793E0A0E0B0E080934901909397
:100C40004A01A0934B01B0934C01809170008260E7
:100C500080937000DACE88E080930001E8E6F0E04F
:100C600014911F3F09F4D1CE113019F148F0123020
:100C700009F43DC017FDC9CE88E00E948900CDCFA0
:100C800014BC15BC84B5826084BD85B5816085BD0A
:100C9000E9E9F0E0E491F0E0EE0FFF1FE358FF4FC9
:100CA00085919491EDEAF0E0E491E093480110E041
:100CB000AECF1092800010928100809181008860F8
:100CC0008093810080918100816080938100E9E9B7
:100CD000F0E0E491F0E0EE0FFF1FE358FF4F859145
:100CE0009491EDEAF0E0E491E093470190CF109207
:100CF000B0001092B1008091B00082608093B0008B
:100D00008091B10081608093B100E9E9F0E0E49165
:100D1000F0E0EE0FFF1FE358FF4F85919491909301
:100D2000460180934501EDEAF0E0E491E09344014F
:100D30006ECF85B5887F846085BD86E487BD80E7FA
:100D400093E0A0E0B0E08093510190935201A09312
:100D50005301B093540180916E00826080936E00C5
:100D600054CE1130F1F480918100887F81608093AE
:100D7000810084E097E4909389008093880080E765
:100D800093E0A0E0B0E080934D0190934E01A093DA
:100D90004F01B093500180916F00826080936F008B
:100DA00034CE123021F0111130CE84E0C7CF84E070
:100DB0003ECFC7010E941F02F2CE9AE0C916D104AD
:100DC00009F45DC0450129960EAD1FAD29970A159E
:100DD0001B0510F4480185011EAE1DAE21961FAE05
:100DE0001EAE219723961FAE1EAE239750E040E023
:100DF0006BE171E0C7010E94F7022996AEACBFAC6F
:100E000029978A149B0448F50A151B0508F4580114
:100E10002596EEADFFAD2597EA0DFB1D10811082E2
:100E200025966EAD7FAD2597680D791D611571050D
:100E300009F48AC0FB0101900020E9F73197AF0166
:100E4000461B570BC7010E94F70225968EAD9FAD3A
:100E50002597A80EB91EF501108386010F5F1F4F5D
:100E600026E02C9DC0012D9D900D1124B701820D0F
:100E7000931D0E943102C7010E946A026801CE01DF
:100E80008D5B9F4F0E946A028D819E81892B09F4A0
:100E900064C06CE171E089819A810E94260A892BE5
:100EA00009F05BC080E291E0CA94CD2809F457C0F4
:100EB0001EAE1DAE21961FAE1EAE219723961FAE0D
:100EC0001EAE23976F8178856115710529F04B85DA
:100ED0005C85C7010E94F702C7010E947202239637
:100EE0008EAD9FAD2397892B99F10DAD1EAD6CE2B0
:100EF00071E0C8010E94260A61E0892B41F061E39C
:100F000071E0C8010E94260A892B11F560E08DE08E
:100F10000E94A800C7010E946A02870106501109B9
:100F2000C8010E946A0220163106C1F7CE01875B14
:100F30009F4F0E946A0250E040E06BE171E08BEF4E
:100F400091E00E94F70265CDC7010E941F027DCF8C
:100F500080E291E00E940202DDCF85E391E00E94F1
:100F60000202DBCF89831A820091FF0110910002F7
:100F70000F5F1F4FB8018BEF91E00E94CF028823D3
:100F800009F447CD2091FB013091FC018091FF01D4
:100F900090910002BE016F5F7F4F820F931F0E94EE
:100FA0002F0A109300020093FF0133CD80E090E000
:100FB000892B09F42ECD0E945F01882309F425CDE9
:100FC0000E94000022CD8BEF91E00C946A029111F7
:100FD0000C94F007803219F089508550C8F70895B5
:100FE0009927882708952F923F924F925F926F9290
:100FF0007F928F929F92AF92BF92CF92DF92EF92A9
:10100000FF920F931F93CF93DF93CDB7DEB7CA1B29
:10101000DB0B0FB6F894DEBF0FBECDBF09942A8854
:10102000398848885F846E847D848C849B84AA84FC
:10103000B984C884DF80EE80FD800C811B81AA8189
:10104000B981CE0FD11D0FB6F894DEBF0FBECDBF54
:10105000ED010895EE0FFF1F0590F491E02D099426
:101060000F931F93CF93DF938230910510F482E0AA
:1010700090E0E0910302F091040230E020E0B0E063
:10108000A0E0309799F42115310509F44AC0281BD6
:10109000390B24303105D8F58A819B8161157105A2
:1010A00089F1FB0193838283FE0111C0408151814C
:1010B0000281138148175907E0F04817590799F43E
:1010C000109761F012960C93129713961C93329618
:1010D000CF01DF91CF911F910F91089500930302EB
:1010E00010930402F4CF2115310551F04217530734
:1010F00038F0A901DB019A01BD01DF01F801C1CF80
:10110000EF01F9CF9093040280930302CDCFFE014B
:10111000E20FF31F81939193225031093983288381
:10112000D7CF2091010230910202232B41F420916C
:1011300003013091040130930202209301022091B7
:101140000101309102012115310541F42DB73EB75F
:101150004091050150910601241B350BE0910102DD
:10116000F0910202E217F307A0F42E1B3F0B2817A1
:10117000390778F0AC014E5F5F4F2417350748F010
:101180004E0F5F1F5093020240930102819391938F
:101190009FCFF0E0E0E09CCFCF93DF930097E9F0A2
:1011A000FC01329713821282A0910302B0910402D3
:1011B000ED0130E020E01097A1F420813181820F11
:1011C000931F20910102309102022817390709F07C
:1011D00061C0F0930202E0930102DF91CF91089584
:1011E000EA01CE17DF07E8F54A815B819E014115D0
:1011F0005105B1F7E901FB83EA8349915991C40F85
:10120000D51FEC17FD0761F4808191810296840F50
:10121000951FE90199838883828193819B838A83C7
:10122000F0E0E0E012968D919C9113970097B9F54C
:101230002D913C911197CD010296820F931F209121
:101240000102309102022817390739F6309751F51B
:101250001092040210920302B0930202A0930102C2
:10126000BCCFD383C28340815181840F951FC8179F
:10127000D90761F44E5F5F4F88819981480F591FEC
:10128000518340838A819B81938382832115310519
:1012900009F0B0CFF0930402E09303029ECFFD016A
:1012A000DC01C0CF13821282D7CFB0E0A0E0EBE523
:1012B000F9E00C94F5078C01009751F4CB010E94E2
:1012C00030088C01C801CDB7DEB7E0E10C941108FD
:1012D000FC01E60FF71F9C0122503109E217F307CA
:1012E00008F49DC0D901CD91DC911197C617D7079D
:1012F00098F0C530D10530F3CE01049786179707D3
:1013000008F3C61BD70B2297C193D1936D937C939F
:10131000CF010E94CC08D6CF5B01AC1ABD0A4C01AC
:101320008C0E9D1EA0910302B0910402512C412C01
:10133000F12CE12C109731F580910102909102027D
:101340008815990509F05CC04616570608F058C084
:101350008091010190910201009741F48DB79EB7F1
:101360004091050150910601841B950BE817F90780
:1013700008F055C0F0930202E0930102F901718375
:101380006083A0CF8D919C91119712966C901297CB
:1013900013967C901397A815B90559F56C0142E096
:1013A000C40ED11CCA14DB0420F1AC014A195B093C
:1013B000DA011296159780F062827382518340831E
:1013C000D9016D937C93E114F10471F0D701139668
:1013D000FC93EE93129776CF22968C0F9D1FF90106
:1013E00091838083F301EFCFF0930402E093030233
:1013F00069CF4816590608F42C017D01D3019ACF14
:10140000CB010E9430087C01009749F0AE01B80181
:101410000E94120AC8010E94CC08870153CF10E035
:1014200000E050CFFB01DC0102C001900D92415061
:101430005040D8F70895FC018191861721F0882348
:10144000D9F7992708953197CF010895FB01DC0161
:101450008D91019080190110D9F3990B0895FB012A
:10146000DC0101900D920020E1F7089510E0CEE537
:10147000D0E004C0FE010E942A082196CF35D10792
:06148000C9F7F894FFCF4C
:10148600FF000005028000000000009501F5002223
:1014960001E2015301310145010D0A006C6564004A
:1014A600696E76616964206172677300686967684E
:1014B600006C6F7700696E7661696420636F6D6D8D
:0414C600616E6400EF
:00000001FF
